{
  "_format": "hh3-artifact-1",
  "contractName": "UniswapV3Router",
  "sourceName": "contracts/dex/uniswap/UniswapV3Router.sol",
  "abi": [
    {
      "inputs": [
        {
          "internalType": "address",
          "name": "_swapRouter",
          "type": "address"
        },
        {
          "internalType": "address",
          "name": "_quoter",
          "type": "address"
        },
        {
          "internalType": "address",
          "name": "_factory",
          "type": "address"
        },
        {
          "internalType": "address",
          "name": "_owner",
          "type": "address"
        },
        {
          "internalType": "address",
          "name": "_WETH9",
          "type": "address"
        },
        {
          "internalType": "address[]",
          "name": "_exchangeableTokens",
          "type": "address[]"
        }
      ],
      "stateMutability": "nonpayable",
      "type": "constructor"
    },
    {
      "inputs": [
        {
          "internalType": "address",
          "name": "owner",
          "type": "address"
        }
      ],
      "name": "OwnableInvalidOwner",
      "type": "error"
    },
    {
      "inputs": [
        {
          "internalType": "address",
          "name": "account",
          "type": "address"
        }
      ],
      "name": "OwnableUnauthorizedAccount",
      "type": "error"
    },
    {
      "inputs": [],
      "name": "ReentrancyGuardReentrantCall",
      "type": "error"
    },
    {
      "anonymous": false,
      "inputs": [
        {
          "indexed": false,
          "internalType": "address",
          "name": "token",
          "type": "address"
        }
      ],
      "name": "AddExchangeableToken",
      "type": "event"
    },
    {
      "anonymous": false,
      "inputs": [
        {
          "indexed": true,
          "internalType": "address",
          "name": "previousOwner",
          "type": "address"
        },
        {
          "indexed": true,
          "internalType": "address",
          "name": "newOwner",
          "type": "address"
        }
      ],
      "name": "OwnershipTransferred",
      "type": "event"
    },
    {
      "anonymous": false,
      "inputs": [
        {
          "indexed": false,
          "internalType": "address",
          "name": "token",
          "type": "address"
        }
      ],
      "name": "RemoveExchangeableToken",
      "type": "event"
    },
    {
      "anonymous": false,
      "inputs": [
        {
          "indexed": false,
          "internalType": "address",
          "name": "tokenA",
          "type": "address"
        },
        {
          "indexed": false,
          "internalType": "address",
          "name": "tokenB",
          "type": "address"
        },
        {
          "indexed": false,
          "internalType": "uint24",
          "name": "fee",
          "type": "uint24"
        }
      ],
      "name": "SetFeeTier",
      "type": "event"
    },
    {
      "anonymous": false,
      "inputs": [
        {
          "indexed": false,
          "internalType": "uint256",
          "name": "amountIn",
          "type": "uint256"
        },
        {
          "indexed": false,
          "internalType": "uint256",
          "name": "amountOut",
          "type": "uint256"
        },
        {
          "indexed": false,
          "internalType": "address",
          "name": "to",
          "type": "address"
        }
      ],
      "name": "SwapTokensForTokens",
      "type": "event"
    },
    {
      "inputs": [],
      "name": "WETH9",
      "outputs": [
        {
          "internalType": "contract WETH9Token",
          "name": "",
          "type": "address"
        }
      ],
      "stateMutability": "view",
      "type": "function"
    },
    {
      "inputs": [
        {
          "internalType": "address",
          "name": "token",
          "type": "address"
        }
      ],
      "name": "addExchangeableToken",
      "outputs": [],
      "stateMutability": "nonpayable",
      "type": "function"
    },
    {
      "inputs": [],
      "name": "dexName",
      "outputs": [
        {
          "internalType": "string",
          "name": "",
          "type": "string"
        }
      ],
      "stateMutability": "pure",
      "type": "function"
    },
    {
      "inputs": [
        {
          "internalType": "uint256",
          "name": "",
          "type": "uint256"
        }
      ],
      "name": "exchangeableTokens",
      "outputs": [
        {
          "internalType": "address",
          "name": "",
          "type": "address"
        }
      ],
      "stateMutability": "view",
      "type": "function"
    },
    {
      "inputs": [],
      "name": "factory",
      "outputs": [
        {
          "internalType": "contract IUniswapV3Factory",
          "name": "",
          "type": "address"
        }
      ],
      "stateMutability": "view",
      "type": "function"
    },
    {
      "inputs": [
        {
          "internalType": "address",
          "name": "token0",
          "type": "address"
        },
        {
          "internalType": "address",
          "name": "token1",
          "type": "address"
        }
      ],
      "name": "feeTiers",
      "outputs": [
        {
          "internalType": "uint24",
          "name": "fee",
          "type": "uint24"
        }
      ],
      "stateMutability": "view",
      "type": "function"
    },
    {
      "inputs": [],
      "name": "getAllExchangeableTokens",
      "outputs": [
        {
          "internalType": "address[]",
          "name": "",
          "type": "address[]"
        }
      ],
      "stateMutability": "view",
      "type": "function"
    },
    {
      "inputs": [
        {
          "internalType": "bytes",
          "name": "path",
          "type": "bytes"
        },
        {
          "internalType": "uint256",
          "name": "amountIn",
          "type": "uint256"
        }
      ],
      "name": "getAmountOutMulti",
      "outputs": [
        {
          "internalType": "uint256",
          "name": "",
          "type": "uint256"
        },
        {
          "internalType": "uint160[]",
          "name": "",
          "type": "uint160[]"
        },
        {
          "internalType": "uint32[]",
          "name": "",
          "type": "uint32[]"
        },
        {
          "internalType": "uint256",
          "name": "",
          "type": "uint256"
        }
      ],
      "stateMutability": "nonpayable",
      "type": "function"
    },
    {
      "inputs": [
        {
          "internalType": "address",
          "name": "tokenIn",
          "type": "address"
        },
        {
          "internalType": "address",
          "name": "tokenOut",
          "type": "address"
        },
        {
          "internalType": "uint24",
          "name": "fee",
          "type": "uint24"
        },
        {
          "internalType": "uint256",
          "name": "amountIn",
          "type": "uint256"
        },
        {
          "internalType": "uint160",
          "name": "sqrtPriceLimitX96",
          "type": "uint160"
        }
      ],
      "name": "getAmountOutSingle",
      "outputs": [
        {
          "internalType": "uint256",
          "name": "",
          "type": "uint256"
        },
        {
          "internalType": "uint160",
          "name": "",
          "type": "uint160"
        },
        {
          "internalType": "uint32",
          "name": "",
          "type": "uint32"
        },
        {
          "internalType": "uint256",
          "name": "",
          "type": "uint256"
        }
      ],
      "stateMutability": "nonpayable",
      "type": "function"
    },
    {
      "inputs": [
        {
          "internalType": "address",
          "name": "tokenIn",
          "type": "address"
        },
        {
          "internalType": "uint256",
          "name": "amountIn",
          "type": "uint256"
        },
        {
          "internalType": "address",
          "name": "tokenOut",
          "type": "address"
        },
        {
          "internalType": "uint8",
          "name": "maxHops",
          "type": "uint8"
        }
      ],
      "name": "getAmountsOut",
      "outputs": [
        {
          "components": [
            {
              "internalType": "address[]",
              "name": "path",
              "type": "address[]"
            },
            {
              "internalType": "bytes",
              "name": "pathBytes",
              "type": "bytes"
            },
            {
              "internalType": "uint256",
              "name": "outputAmount",
              "type": "uint256"
            },
            {
              "internalType": "uint256",
              "name": "inputAmount",
              "type": "uint256"
            },
            {
              "internalType": "address",
              "name": "dexRouter",
              "type": "address"
            }
          ],
          "internalType": "struct Model.SwapPath",
          "name": "swapPath",
          "type": "tuple"
        }
      ],
      "stateMutability": "nonpayable",
      "type": "function"
    },
    {
      "inputs": [],
      "name": "owner",
      "outputs": [
        {
          "internalType": "address",
          "name": "",
          "type": "address"
        }
      ],
      "stateMutability": "view",
      "type": "function"
    },
    {
      "inputs": [],
      "name": "quoter",
      "outputs": [
        {
          "internalType": "contract IQuoterV2",
          "name": "",
          "type": "address"
        }
      ],
      "stateMutability": "view",
      "type": "function"
    },
    {
      "inputs": [
        {
          "internalType": "address",
          "name": "token",
          "type": "address"
        }
      ],
      "name": "removeExchangeableToken",
      "outputs": [],
      "stateMutability": "nonpayable",
      "type": "function"
    },
    {
      "inputs": [],
      "name": "renounceOwnership",
      "outputs": [],
      "stateMutability": "nonpayable",
      "type": "function"
    },
    {
      "inputs": [
        {
          "internalType": "address",
          "name": "tokenA",
          "type": "address"
        },
        {
          "internalType": "address",
          "name": "tokenB",
          "type": "address"
        },
        {
          "internalType": "uint24",
          "name": "fee",
          "type": "uint24"
        }
      ],
      "name": "setFeeTier",
      "outputs": [],
      "stateMutability": "nonpayable",
      "type": "function"
    },
    {
      "inputs": [],
      "name": "swapRouter",
      "outputs": [
        {
          "internalType": "contract ISwapRouter02",
          "name": "",
          "type": "address"
        }
      ],
      "stateMutability": "view",
      "type": "function"
    },
    {
      "inputs": [
        {
          "components": [
            {
              "internalType": "address[]",
              "name": "path",
              "type": "address[]"
            },
            {
              "internalType": "bytes",
              "name": "pathBytes",
              "type": "bytes"
            },
            {
              "internalType": "uint256",
              "name": "outputAmount",
              "type": "uint256"
            },
            {
              "internalType": "uint256",
              "name": "inputAmount",
              "type": "uint256"
            },
            {
              "internalType": "address",
              "name": "dexRouter",
              "type": "address"
            }
          ],
          "internalType": "struct Model.SwapPath",
          "name": "swapPath",
          "type": "tuple"
        },
        {
          "internalType": "address",
          "name": "tokenIn",
          "type": "address"
        },
        {
          "internalType": "uint256",
          "name": "amountIn",
          "type": "uint256"
        },
        {
          "internalType": "uint256",
          "name": "amountOutMin",
          "type": "uint256"
        },
        {
          "internalType": "address",
          "name": "to",
          "type": "address"
        },
        {
          "internalType": "uint256",
          "name": "deadline",
          "type": "uint256"
        }
      ],
      "name": "swapTokensForTokens",
      "outputs": [
        {
          "internalType": "uint256",
          "name": "",
          "type": "uint256"
        }
      ],
      "stateMutability": "payable",
      "type": "function"
    },
    {
      "inputs": [
        {
          "internalType": "address",
          "name": "newOwner",
          "type": "address"
        }
      ],
      "name": "transferOwnership",
      "outputs": [],
      "stateMutability": "nonpayable",
      "type": "function"
    }
  ],
  "bytecode": "0x6040610100815234620003b057620020de803803806200001f81620003c8565b92833981019060c081830312620003b0576200003b81620003ee565b916020926200004c848401620003ee565b936200005a868501620003ee565b6200006860608601620003ee565b936200007760808701620003ee565b60a08701516001600160401b0397888211620003b057019282601f85011215620003b057835192888411620003b4578360051b9486620000b9818801620003c8565b809681520190878297820101928311620003b05787809101915b83831062000395575050506001600160a01b0397881699905089156200037e575f80546001600160a01b031981168c1782558c519b919891908a167f8be0079c531659141344cd1fd0a4f28419497f9722a3daafe3b4186f6b6457e08a80a360019a8b80558b865111156200032d57508816908115620002e9578816918215620002a5578816918215620002635760a05260805260c052851660e052519485116200024f576801000000000000000085116200024f576002548560025580861062000224575b509260028352818320925b85811062000210578751611cda90816200040482396080518181816102df0152610712015260a05181818161025501528181611663015261174a015260c05181818161029a0152611141015260e0518181816106b8015281816109a701528181610f330152610f760152f35b8451821684820155938201938601620001a4565b60028452868684862092830192015b8281106200024357505062000199565b85815501879062000233565b634e487b7160e01b83526041600452602483fd5b6064878d519062461bcd60e51b825280600483015260248201527f556e69737761705633526f757465723a20494e56414c49445f464143544f52596044820152fd5b8b5162461bcd60e51b815260048101889052601f60248201527f556e69737761705633526f757465723a20494e56414c49445f51554f544552006044820152606490fd5b8b5162461bcd60e51b815260048101889052601f60248201527f556e69737761705633526f757465723a20494e56414c49445f524f55544552006044820152606490fd5b62461bcd60e51b815260048101889052602660248201527f556e69737761705633526f757465723a20494e56414c49445f544f4b454e535f6044820152650988a9c8ea8960d31b6064820152608490fd5b8a51631e4fbdf760e01b81525f6004820152602490fd5b8190620003a284620003ee565b8152019101908790620000d3565b5f80fd5b634e487b7160e01b5f52604160045260245ffd5b6040519190601f01601f191682016001600160401b03811183821017620003b457604052565b51906001600160a01b0382168203620003b05756fe6080806040526004361015610012575f80fd5b5f90813560e01c908162c1520c1461129b5750806304fe3fcb146110d257806312009f271461106157806320afb93b14610fe9578063315a0cbb14610fa55780634aa4a4fc14610f605780635fbd8ce314610c055780636436675814610a875780636fd52fc314610562578063715018a6146105095780638300d03c146103cd5780638da5cb5b146103a65780639206857c1461030e578063c31c9c07146102c9578063c45a015514610284578063c6bbd5a71461023f578063ec4c259a1461016d5763f2fde38b146100e3575f80fd5b3461016a57602036600319011261016a576100fc6112e8565b6101046114e5565b6001600160a01b03908116908115610151575f54826001600160601b0360a01b8216175f55167f8be0079c531659141344cd1fd0a4f28419497f9722a3daafe3b4186f6b6457e05f80a380f35b604051631e4fbdf760e01b815260048101849052602490fd5b80fd5b503461016a57604036600319011261016a5760043567ffffffffffffffff811161023b576101a26101ab91369060040161148f565b6024359061170a565b939091604051936080850190855260209060808287015282518091528160a08701930190845b81811061021e5750505084820360408601528080855193848152019401925b828110610204578580868960608301520390f35b835163ffffffff16855293810193928101926001016101f0565b82516001600160a01b0316855293830193918301916001016101d1565b5080fd5b503461016a578060031936011261016a576040517f00000000000000000000000000000000000000000000000000000000000000006001600160a01b03168152602090f35b503461016a578060031936011261016a576040517f00000000000000000000000000000000000000000000000000000000000000006001600160a01b03168152602090f35b503461016a578060031936011261016a576040517f00000000000000000000000000000000000000000000000000000000000000006001600160a01b03168152602090f35b503461016a578060031936011261016a57604051809182600254808452602080940190600284527f405787fa12a823e0f2b7631cc41b3ba8828b3321ca811111fa75cd3aa3bb5ace935b858282106103875750505061036f92500383611455565b6103836040519282849384528301906113cd565b0390f35b85546001600160a01b0316845260019586019588955093019201610358565b503461016a578060031936011261016a57546040516001600160a01b039091168152602090f35b503461016a5760208060031936011261023b576103e86112e8565b906103f16114e5565b60028054929091906001600160a01b0390811690855b858110610412578680f35b818361041d83611384565b929054600393841b1c161461043b575061043690611510565b610407565b92939491905f97969719978881019081116104f5579061046e8361046161048d94611384565b905490881b1c1691611384565b90919082549060031b9160018060a01b03809116831b921b1916179055565b81549687156104e1577fa6863cb3fde3a64428608c06b62d713381ec5816aaceb74bf5d1865d847b3e88969701926104c484611384565b81939154921b1b1916905555604051908152a15f80808080808680f35b634e487b7160e01b87526031600452602487fd5b634e487b7160e01b88526011600452602488fd5b503461016a578060031936011261016a576105226114e5565b5f80546001600160a01b0319811682556001600160a01b03167f8be0079c531659141344cd1fd0a4f28419497f9722a3daafe3b4186f6b6457e08280a380f35b5060031960c03682011261023b576004359167ffffffffffffffff9182841161023b5760a090843603011261016a576040519261059e84611409565b8060040135838111610a835781019336602386011215610a83576004850135906105c782611477565b6105d46040519182611455565b8281526020968782016024809560051b830101913683116108eb5790858a9201905b838210610a6c5750505050815281830135858111610a685761061e906004369186010161148f565b948682019586526044808501356040840152610647608460649687810135606087015201611318565b6080840152610654611302565b6001600160a01b03608435818116979195919290843590899003610a6457600260015414610a525760026001558181934260a43510610a10576002905151106109ce57878d911691821580156109a3575b1561093f57505050505034156108ef57837f000000000000000000000000000000000000000000000000000000000000000016803b156108eb57604051630d0e30db60e41b8152888160048134865af180156108e0576108b9575b5090879885928b8886349c8d94905b887f0000000000000000000000000000000000000000000000000000000000000000169b8c92604051978896879563095ea7b360e01b87526004870152850152165af180156108ae57610881575b505160405194608086019081118682101761086e5793608095938b938d98969389946040528652838601928b845260408701908d82526060880193833585526107c76040519d8e9c8d9b8c9a63b858183f60e01b8c5260048c015251918a015260a489019061135f565b95511690860152519084015251608483015203925af193841561086257809461082f575b50507fc8cb4ba3fba25db66c1fb1e23b9b0ebaa159932a0140edc1a85b5484ffd3ee9d9160609160405191825284868301526040820152a160018055604051908152f35b909193508482813d831161085b575b6108488183611455565b8101031261016a575051918160606107eb565b503d61083e565b604051903d90823e3d90fd5b87634e487b7160e01b5f5260416004525ffd5b6108a0908c8d3d106108a7575b6108988183611455565b810190611540565b505f61075d565b503d61088e565b6040513d8d823e3d90fd5b8481999299116108cd576040529684610700565b634e487b7160e01b825260416004528682fd5b6040513d8b823e3d90fd5b8780fd5b651217d4d1539560d21b89917f556e69737761705633526f757465723a20494e53554646494349454e545f45546084946026896040519662461bcd60e51b88526004880152860152840152820152fd5b858a8d9e969d60405195869485936323b872dd60e01b855233600486015230908501528b8401525af180156108ae578886899695948f938f90958f96610986575b5061070f565b61099c90863d88116108a7576108988183611455565b505f610980565b50887f00000000000000000000000000000000000000000000000000000000000000001683146106a5565b60405162461bcd60e51b8152600481018e9052601d818b01527f556e69737761705633526f757465723a20494e56414c49445f50415448000000818801528590fd5b60405162461bcd60e51b8152600481018f90526018818c01527f556e69737761705633526f757465723a20455850495245440000000000000000818901528690fd5b604051633ee5aeb560e01b8152600490fd5b8980fd5b8480fd5b828091610a7884611318565b8152019101906105f6565b8280fd5b503461016a57602036600319011261016a57610aa16112e8565b610aa96114e5565b6001600160a01b0390808216908115610bc0576002548493845b828110610b8c575b5050909192610b3b5768010000000000000000811015610b275791610b1d60209261046e8560017fcfd6cf093150ee2a35dca43410ca62f1eebf9425a3c04d661d871803b1181bbf9701600255611384565b604051908152a180f35b634e487b7160e01b84526041600452602484fd5b60405162461bcd60e51b8152602060048201526024808201527f556e69737761705633526f757465723a20544f4b454e5f414c52454144595f45604482015263161254d560e21b6064820152608490fd5b8482610b9783611384565b90549060031b1c1614610bb257610bad90611510565b610ac3565b50600194505f905080610acb565b60405162461bcd60e51b815260206004820152601e60248201527f556e69737761705633526f757465723a20494e56414c49445f544f4b454e00006044820152606490fd5b503461016a57608036600319011261016a57610c1f6112e8565b906044356001600160a01b038116900361016a576064359060ff8216820361016a578260405193610c4f85611409565b60608086526020860152604085018390526001600160a01b031615610f30575b6024356060850152306080850152610c90610c8b600254611532565b6118d8565b91610c9a83611477565b92610ca86040519485611455565b808452610cb7601f1991611477565b01815b818110610f1f57505060405180606081011067ffffffffffffffff606083011117610f0b5760608101604052600281526040366020830137610cfb8161158a565b6001600160a01b0384169052805160011015610ef7576044356001600160a01b03166040820152610d2b8461158a565b52610d358361158a565b506001600160a01b0382165f9081526003602052604090206044356001600160a01b0316825260205260408120549062ffffff8216610e5a575b5050600160025b60ff8516811115610de55785604051809160208252610dba610da4825160a0602086015260c08501906113cd565b6020830151848203601f1901604086015261135f565b906040810151606084015260608101516080840152608060018060a01b039101511660a08301520390f35b85600254610df283611532565b8110610e4d57610e469160ff9394610e0c610e4093611558565b9088610e1f610e1a896115ab565b611558565b926001600160a01b038a16610e338561158a565b526001604435948b6119ac565b92611510565b9050610d76565b5050610e4660ff91611510565b604051916001600160601b031990818560601b16602085015262ffffff60e81b9060e81b16603484015260443560601b166037830152602b825281606081011067ffffffffffffffff606084011117610ee3575060608101604052610ec360608601518261170a565b50505060408601526020850152610ed98261158a565b5184525f80610d6f565b634e487b7160e01b81526041600452602490fd5b634e487b7160e01b82526032600452602482fd5b634e487b7160e01b82526041600452602482fd5b806060602080938801015201610cba565b507f00000000000000000000000000000000000000000000000000000000000000006001600160a01b0316610c6f565b503461016a578060031936011261016a576040517f00000000000000000000000000000000000000000000000000000000000000006001600160a01b03168152602090f35b503461016a57602036600319011261016a576004359060025482101561016a576020610fd083611384565b905460405160039290921b1c6001600160a01b03168152f35b503461016a5760a036600319011261016a576110036112e8565b9061100c611302565b9161101561132c565b608435936001600160a01b0393848616860361016a57509363ffffffff9261104392608096606435926115de565b93929490916040519586521660208501521660408301526060820152f35b503461016a578060031936011261016a576040516040810181811067ffffffffffffffff8211176110be5761038392506040526009815268556e6973776170563360b81b602082015260405191829160208352602083019061135f565b634e487b7160e01b83526041600452602483fd5b503461016a57606036600319011261016a576110ec6112e8565b906110f5611302565b6110fd61132c565b926111066114e5565b604051630b4c774160e11b81526001600160a01b038281166004830152838116602483015262ffffff861660448301526020959186816064817f000000000000000000000000000000000000000000000000000000000000000086165afa908115611290579082918791611252575b50161561120d57828116808652600380885260408088209387168852928852828720805462ffffff1990811662ffffff9690961695861790915590885282872091875296528085208054909616821790955584516001600160a01b03928316815291909216602082015292830152907f95826e4054d946f6d853d8dba444a92ae9bd013e502250f4b58c4abd69437f4190606090a180f35b60405162461bcd60e51b815260048101879052601f60248201527f556e69737761705633526f757465723a20504f4f4c5f4e4f545f4558495354006044820152606490fd5b809250888092503d8311611289575b61126b8183611455565b81010312611285575181811681036112855781905f611175565b8580fd5b503d611261565b6040513d88823e3d90fd5b90503461023b57604036600319011261023b5762ffffff60406020936112bf6112e8565b6112c7611302565b6001600160a01b039182168352600387528383209116825285522054168152f35b600435906001600160a01b03821682036112fe57565b5f80fd5b602435906001600160a01b03821682036112fe57565b35906001600160a01b03821682036112fe57565b6044359062ffffff821682036112fe57565b5f5b83811061134f5750505f910152565b8181015183820152602001611340565b906020916113788151809281855285808601910161133e565b601f01601f1916010190565b6002548110156113b95760025f527f405787fa12a823e0f2b7631cc41b3ba8828b3321ca811111fa75cd3aa3bb5ace01905f90565b634e487b7160e01b5f52603260045260245ffd5b9081518082526020808093019301915f5b8281106113ec575050505090565b83516001600160a01b0316855293810193928101926001016113de565b60a0810190811067ffffffffffffffff82111761142557604052565b634e487b7160e01b5f52604160045260245ffd5b6020810190811067ffffffffffffffff82111761142557604052565b90601f8019910116810190811067ffffffffffffffff82111761142557604052565b67ffffffffffffffff81116114255760051b60200190565b81601f820112156112fe5780359067ffffffffffffffff821161142557604051926114c4601f8401601f191660200185611455565b828452602083830101116112fe57815f926020809301838601378301015290565b5f546001600160a01b031633036114f857565b60405163118cdaa760e01b8152336004820152602490fd5b5f19811461151e5760010190565b634e487b7160e01b5f52601160045260245ffd5b5f1981019190821161151e57565b908160209103126112fe575180151581036112fe5790565b9061156282611477565b61156f6040519182611455565b8281528092611580601f1991611477565b0190602036910137565b8051156113b95760200190565b80518210156113b95760209160051b010190565b906001820180921161151e57565b51906001600160a01b03821682036112fe57565b519063ffffffff821682036112fe57565b919493909294604051936115f185611409565b60018060a01b03968780951686528460208701921682526040860190815284606087019262ffffff80951684528160808901961686528160405198636352813560e11b8a525116600489015251166024870152516044860152511660648401525116608482015260808160a4815f80977f0000000000000000000000000000000000000000000000000000000000000000165af1908391849281869387936116ad575b506116a457505050508180918190565b94509192909190565b9450925050506080823d8211611702575b816116cb60809383611455565b810103126116fe578151906116e2602084016115b9565b60606116f0604086016115cd565b94015192909392915f611694565b8380fd5b3d91506116be565b61173390929192604093845192839263cdca175360e01b8452866004850152604484019061135f565b906024830152815f93849203818360018060a01b037f0000000000000000000000000000000000000000000000000000000000000000165af1908291839281859386936117b5575b506117ac575050505082519261179084611439565b818452519161179e83611439565b818352813681378193929190565b95509193909250565b9350935050503d8084833e6117ca8183611455565b8101916080828403126116fe57815191602090818101519167ffffffffffffffff928381116108eb5782019286601f850112156108eb5783519361180d85611477565b9461181a8c519687611455565b808652838087019160051b830101918983116118d45784809101915b8383106118bc5750505050898301519081116108eb5782019580601f880112156108eb57865161186581611477565b976118728c51998a611455565b81895283808a019260051b820101928311610a64578301905b8282106118a557505050506060015192909392915f61177b565b8380916118b1846115cd565b81520191019061188b565b81906118c7846115b9565b8152019101908490611836565b8a80fd5b801561194d576001908182915b808311156118f35750505090565b909192835f1981011161193957600184830301928284116119395783810293818504149015171561193957828101809111611939576119329093611510565b91906118e5565b60245f634e487b7160e01b81526011600452fd5b50600190565b60405161195f81611439565b5f8152905f368137565b60206119aa91939293604051948161198a879351809286808701910161133e565b820161199e8251809386808501910161133e565b01038085520183611455565b565b90979697959391959492946119c18151611532565b8714611aa8575f9687945b600254861015611a9c57868b916119fa6119e589611384565b905460039190911b1c6001600160a01b031690565b6001600160a01b038781169116148015611a89575b611a7c5790611a6092916001611a258a8d611597565b52611a4e611a356119e58b611384565b611a3f8789611597565b6001600160a01b039091169052565b878b611a59876115ab565b888a6119ac565b611a76909589611a70828b611597565b52611510565b946119cc565b969050611a769150611510565b50611a94888b611597565b511515611a0f565b99505050505050505050565b9450509391611a3f611abd9297969385611597565b611ac78251611558565b611ad18685611597565b52611adc8584611597565b50611ae5611953565b925f935b8351851015611c5157611b23611b0f611b028787611597565b516001600160a01b031690565b611a3f87611b1d8b87611597565b51611597565b8415611c1657611b8a611b81611b60611b47611b02611b418a611532565b89611597565b6001600160a01b03165f90815260036020526040902090565b611b6d611b028989611597565b60018060a01b03165f5260205260405f2090565b5462ffffff1690565b9062ffffff821615611c0257611bfc91611bf691611bf1611bae611b028a8a611597565b60405160e89490941b6001600160e81b031916602085015260601b6bffffffffffffffffffffffff1916602384015282603781015b03601f198101845283611455565b611969565b94611510565b93611ae9565b50505093915050611c1391506115ab565b90565b611bf6611be3611bfc92611bf1611c30611b028a8a611597565b604051938491602083016014916001600160601b03199060601b1681520190565b925090949250611c1393611c6960608201518461170a565b5050509184604083019182518511611c87575b5050505050506115ab565b602094611c949352611597565b51815201525f8080808481611c7c56fea264697066735822122063ad1660457c6836e48148c4a0b3ec0bd104ace1c1c3152744e4cf9981dda3e164736f6c63430008140033",
  "linkReferences": {},
  "deployedLinkReferences": {},
  "immutableReferences": {
    "831": [
      {
        "length": 32,
        "start": 735
      },
      {
        "length": 32,
        "start": 1810
      }
    ],
    "834": [
      {
        "length": 32,
        "start": 597
      },
      {
        "length": 32,
        "start": 5731
      },
      {
        "length": 32,
        "start": 5962
      }
    ],
    "837": [
      {
        "length": 32,
        "start": 666
      },
      {
        "length": 32,
        "start": 4417
      }
    ],
    "840": [
      {
        "length": 32,
        "start": 1720
      },
      {
        "length": 32,
        "start": 2471
      },
      {
        "length": 32,
        "start": 3891
      },
      {
        "length": 32,
        "start": 3958
      }
    ]
  },
  "inputSourceName": "project/contracts/dex/uniswap/UniswapV3Router.sol",
  "buildInfoId": "solc-0_8_20-0dae1924bdb0b3577a099420ef91b64a5b6462bd"
}